:1000000009C016C015C014C013C012C011C010C062
:100010003FC00EC011241FBECFE9CDBF10E0A0E647
:10002000B0E001C01D92A239B107E1F75FD0B4C1C1
:10003000E7CF20916000922F9F5F9F7190936000A7
:100040009EBB8DBB84E28CBB86E28CBBE199FECF6C
:100050002EBB84E18CBB86E18CBB089589BD86BF35
:100060000895369A3699FECF95B1981758F4809135
:1000700066008F5F80936600893040F010926600C2
:1000800081E008951092660080E0089580E0089570
:100090001F920F920FB60F9211242F933F938F93BD
:1000A0009F93809171008F3F19F08F5F8093710053
:1000B00080917100883788F02091620030E0809153
:1000C000650090E001972817390739F489B588321F
:1000D00020F089B5815089BD86BF9F918F913F9156
:1000E0002F910F900FBE0F901F90189581E188BB44
:1000F00082E790E060E070E040E250E03ED1809125
:10010000600001C08F5FE82FF0E0EE58FF4F908154
:100110009F3F29F080936000803220F006C080323B
:1001200088F303C09093620002C010926000B099FF
:100130000BC080916500E82FF0E0E959FF4F93E094
:1001400090838F5F8093650080916500E82FF0E0D9
:10015000E959FF4F9EE090838F5FE82FF0E0E95967
:10016000FF4F9FEF90838F5F80936500B49903C02A
:100170008FEF9FEF02C081E090E090936400809346
:100180006300A39A83E687B986EC86B93699FECFD9
:10019000369A3699FECF85B1833838F18091620066
:1001A000882371F480916300909164002FEF8F3F5A
:1001B000920731F48091650081508093620012C0F3
:1001C0008091620090916300890F8093620080911A
:1001D00062002091650030E090E08217930714F0F0
:1001E000109262008091620024DF3798BB9AC39A14
:1001F000B99A93E29FBD81E083BFA29A81E687B955
:1002000086EC86B9479A85B7877E85BF8091620064
:10021000F894A89581B5886181BD85E481BD789405
:10022000E0916200F0E0E959FF4F8081893010F0E1
:100230009FBD02C081E28FBD81E083BFE09162007B
:10024000F0E0E959FF4F808189BD86BF82E809DF70
:10025000882309F48AC080916200882309F043C092
:1002600096B7E0916200F0E0E959FF4F808189176D
:1002700008F439C088E7F5DE8823E1F380E018C090
:1002800019BC16BE2FE739EA43E021503040404008
:10029000E1F700C000009091670099BD96BF2FEF75
:1002A00032E547E0215030404040E1F700C0000017
:1002B0008F5F8B3029F719BC16BEF894A89584B7C8
:1002C000877F84BF81B5886181BD11BC789485B773
:1002D000877E806185BF85B7806285BF889585B739
:1002E0008F7D85BF39C096B780E016C019BC16BE99
:1002F0002FE739EA43E0215030404040E1F700C0A9
:10030000000099BD96BF2FEF32E547E02150304005
:100310004040E1F700C000008F5F843039F796B7A6
:10032000809167009695981728F489BD86BF109232
:10033000620004C086B7869589BD86BF96B7E091F6
:100340006200F0E0E959FF4F8081981728F480910E
:1003500062008150809362008FEF91EFABE2815099
:100360009040A040E1F700C0000085B7806285BFE3
:10037000889585B78F7D85BF69CFA82F862FE82FF9
:10038000E199FECF1FBA05C0EEBBE09AE3950DB22E
:0C0390000D924150C8F70895F894FFCF7B
:00000001FF
